{
  "_format": "hh-sol-artifact-1",
  "contractName": "InvoiceNFT",
  "sourceName": "contracts/InvoiceNFT.sol",
  "abi": [
    {
      "inputs": [],
      "stateMutability": "nonpayable",
      "type": "constructor"
    },
    {
      "inputs": [
        {
          "internalType": "address",
          "name": "sender",
          "type": "address"
        },
        {
          "internalType": "uint256",
          "name": "balance",
          "type": "uint256"
        },
        {
          "internalType": "uint256",
          "name": "needed",
          "type": "uint256"
        },
        {
          "internalType": "uint256",
          "name": "tokenId",
          "type": "uint256"
        }
      ],
      "name": "ERC1155InsufficientBalance",
      "type": "error"
    },
    {
      "inputs": [
        {
          "internalType": "address",
          "name": "approver",
          "type": "address"
        }
      ],
      "name": "ERC1155InvalidApprover",
      "type": "error"
    },
    {
      "inputs": [
        {
          "internalType": "uint256",
          "name": "idsLength",
          "type": "uint256"
        },
        {
          "internalType": "uint256",
          "name": "valuesLength",
          "type": "uint256"
        }
      ],
      "name": "ERC1155InvalidArrayLength",
      "type": "error"
    },
    {
      "inputs": [
        {
          "internalType": "address",
          "name": "operator",
          "type": "address"
        }
      ],
      "name": "ERC1155InvalidOperator",
      "type": "error"
    },
    {
      "inputs": [
        {
          "internalType": "address",
          "name": "receiver",
          "type": "address"
        }
      ],
      "name": "ERC1155InvalidReceiver",
      "type": "error"
    },
    {
      "inputs": [
        {
          "internalType": "address",
          "name": "sender",
          "type": "address"
        }
      ],
      "name": "ERC1155InvalidSender",
      "type": "error"
    },
    {
      "inputs": [
        {
          "internalType": "address",
          "name": "operator",
          "type": "address"
        },
        {
          "internalType": "address",
          "name": "owner",
          "type": "address"
        }
      ],
      "name": "ERC1155MissingApprovalForAll",
      "type": "error"
    },
    {
      "inputs": [
        {
          "internalType": "address",
          "name": "owner",
          "type": "address"
        }
      ],
      "name": "OwnableInvalidOwner",
      "type": "error"
    },
    {
      "inputs": [
        {
          "internalType": "address",
          "name": "account",
          "type": "address"
        }
      ],
      "name": "OwnableUnauthorizedAccount",
      "type": "error"
    },
    {
      "anonymous": false,
      "inputs": [
        {
          "indexed": true,
          "internalType": "address",
          "name": "account",
          "type": "address"
        },
        {
          "indexed": true,
          "internalType": "address",
          "name": "operator",
          "type": "address"
        },
        {
          "indexed": false,
          "internalType": "bool",
          "name": "approved",
          "type": "bool"
        }
      ],
      "name": "ApprovalForAll",
      "type": "event"
    },
    {
      "anonymous": false,
      "inputs": [
        {
          "indexed": true,
          "internalType": "uint256",
          "name": "invoiceId",
          "type": "uint256"
        },
        {
          "indexed": true,
          "internalType": "address",
          "name": "creator",
          "type": "address"
        },
        {
          "indexed": false,
          "internalType": "uint256",
          "name": "nftId",
          "type": "uint256"
        }
      ],
      "name": "InvoiceCreated",
      "type": "event"
    },
    {
      "anonymous": false,
      "inputs": [
        {
          "indexed": true,
          "internalType": "uint256",
          "name": "invoiceId",
          "type": "uint256"
        },
        {
          "indexed": true,
          "internalType": "address",
          "name": "creator",
          "type": "address"
        }
      ],
      "name": "InvoicePaid",
      "type": "event"
    },
    {
      "anonymous": false,
      "inputs": [
        {
          "indexed": true,
          "internalType": "address",
          "name": "previousOwner",
          "type": "address"
        },
        {
          "indexed": true,
          "internalType": "address",
          "name": "newOwner",
          "type": "address"
        }
      ],
      "name": "OwnershipTransferred",
      "type": "event"
    },
    {
      "anonymous": false,
      "inputs": [
        {
          "indexed": true,
          "internalType": "address",
          "name": "operator",
          "type": "address"
        },
        {
          "indexed": true,
          "internalType": "address",
          "name": "from",
          "type": "address"
        },
        {
          "indexed": true,
          "internalType": "address",
          "name": "to",
          "type": "address"
        },
        {
          "indexed": false,
          "internalType": "uint256[]",
          "name": "ids",
          "type": "uint256[]"
        },
        {
          "indexed": false,
          "internalType": "uint256[]",
          "name": "values",
          "type": "uint256[]"
        }
      ],
      "name": "TransferBatch",
      "type": "event"
    },
    {
      "anonymous": false,
      "inputs": [
        {
          "indexed": true,
          "internalType": "address",
          "name": "operator",
          "type": "address"
        },
        {
          "indexed": true,
          "internalType": "address",
          "name": "from",
          "type": "address"
        },
        {
          "indexed": true,
          "internalType": "address",
          "name": "to",
          "type": "address"
        },
        {
          "indexed": false,
          "internalType": "uint256",
          "name": "id",
          "type": "uint256"
        },
        {
          "indexed": false,
          "internalType": "uint256",
          "name": "value",
          "type": "uint256"
        }
      ],
      "name": "TransferSingle",
      "type": "event"
    },
    {
      "anonymous": false,
      "inputs": [
        {
          "indexed": false,
          "internalType": "string",
          "name": "value",
          "type": "string"
        },
        {
          "indexed": true,
          "internalType": "uint256",
          "name": "id",
          "type": "uint256"
        }
      ],
      "name": "URI",
      "type": "event"
    },
    {
      "inputs": [
        {
          "internalType": "address",
          "name": "account",
          "type": "address"
        },
        {
          "internalType": "uint256",
          "name": "id",
          "type": "uint256"
        }
      ],
      "name": "balanceOf",
      "outputs": [
        {
          "internalType": "uint256",
          "name": "",
          "type": "uint256"
        }
      ],
      "stateMutability": "view",
      "type": "function"
    },
    {
      "inputs": [
        {
          "internalType": "address[]",
          "name": "accounts",
          "type": "address[]"
        },
        {
          "internalType": "uint256[]",
          "name": "ids",
          "type": "uint256[]"
        }
      ],
      "name": "balanceOfBatch",
      "outputs": [
        {
          "internalType": "uint256[]",
          "name": "",
          "type": "uint256[]"
        }
      ],
      "stateMutability": "view",
      "type": "function"
    },
    {
      "inputs": [
        {
          "internalType": "string",
          "name": "_issuer",
          "type": "string"
        },
        {
          "internalType": "string",
          "name": "_recipient",
          "type": "string"
        },
        {
          "internalType": "string",
          "name": "_description",
          "type": "string"
        },
        {
          "internalType": "uint256",
          "name": "_amount",
          "type": "uint256"
        },
        {
          "internalType": "string",
          "name": "_currency",
          "type": "string"
        },
        {
          "internalType": "uint256",
          "name": "_dueDate",
          "type": "uint256"
        },
        {
          "internalType": "string",
          "name": "_paymentInfo",
          "type": "string"
        }
      ],
      "name": "createInvoice",
      "outputs": [],
      "stateMutability": "nonpayable",
      "type": "function"
    },
    {
      "inputs": [],
      "name": "currentInvoiceId",
      "outputs": [
        {
          "internalType": "uint256",
          "name": "",
          "type": "uint256"
        }
      ],
      "stateMutability": "view",
      "type": "function"
    },
    {
      "inputs": [
        {
          "internalType": "uint256",
          "name": "_invoiceId",
          "type": "uint256"
        }
      ],
      "name": "getInvoiceDetails",
      "outputs": [
        {
          "components": [
            {
              "internalType": "uint256",
              "name": "id",
              "type": "uint256"
            },
            {
              "internalType": "string",
              "name": "issuer",
              "type": "string"
            },
            {
              "internalType": "string",
              "name": "recipient",
              "type": "string"
            },
            {
              "internalType": "string",
              "name": "description",
              "type": "string"
            },
            {
              "internalType": "uint256",
              "name": "amount",
              "type": "uint256"
            },
            {
              "internalType": "string",
              "name": "currency",
              "type": "string"
            },
            {
              "internalType": "string",
              "name": "status",
              "type": "string"
            },
            {
              "internalType": "uint256",
              "name": "dueDate",
              "type": "uint256"
            },
            {
              "internalType": "string",
              "name": "paymentInfo",
              "type": "string"
            },
            {
              "internalType": "uint256",
              "name": "issueDate",
              "type": "uint256"
            }
          ],
          "internalType": "struct InvoiceNFT.Invoice",
          "name": "",
          "type": "tuple"
        }
      ],
      "stateMutability": "view",
      "type": "function"
    },
    {
      "inputs": [
        {
          "internalType": "uint256",
          "name": "",
          "type": "uint256"
        }
      ],
      "name": "invoiceCreators",
      "outputs": [
        {
          "internalType": "address",
          "name": "",
          "type": "address"
        }
      ],
      "stateMutability": "view",
      "type": "function"
    },
    {
      "inputs": [
        {
          "internalType": "uint256",
          "name": "",
          "type": "uint256"
        }
      ],
      "name": "invoices",
      "outputs": [
        {
          "internalType": "uint256",
          "name": "id",
          "type": "uint256"
        },
        {
          "internalType": "string",
          "name": "issuer",
          "type": "string"
        },
        {
          "internalType": "string",
          "name": "recipient",
          "type": "string"
        },
        {
          "internalType": "string",
          "name": "description",
          "type": "string"
        },
        {
          "internalType": "uint256",
          "name": "amount",
          "type": "uint256"
        },
        {
          "internalType": "string",
          "name": "currency",
          "type": "string"
        },
        {
          "internalType": "string",
          "name": "status",
          "type": "string"
        },
        {
          "internalType": "uint256",
          "name": "dueDate",
          "type": "uint256"
        },
        {
          "internalType": "string",
          "name": "paymentInfo",
          "type": "string"
        },
        {
          "internalType": "uint256",
          "name": "issueDate",
          "type": "uint256"
        }
      ],
      "stateMutability": "view",
      "type": "function"
    },
    {
      "inputs": [
        {
          "internalType": "address",
          "name": "account",
          "type": "address"
        },
        {
          "internalType": "address",
          "name": "operator",
          "type": "address"
        }
      ],
      "name": "isApprovedForAll",
      "outputs": [
        {
          "internalType": "bool",
          "name": "",
          "type": "bool"
        }
      ],
      "stateMutability": "view",
      "type": "function"
    },
    {
      "inputs": [
        {
          "internalType": "uint256",
          "name": "_invoiceId",
          "type": "uint256"
        }
      ],
      "name": "markAsPaid",
      "outputs": [],
      "stateMutability": "nonpayable",
      "type": "function"
    },
    {
      "inputs": [
        {
          "internalType": "uint256",
          "name": "_invoiceId",
          "type": "uint256"
        },
        {
          "internalType": "uint256",
          "name": "_amount",
          "type": "uint256"
        }
      ],
      "name": "mintMoreCopies",
      "outputs": [],
      "stateMutability": "nonpayable",
      "type": "function"
    },
    {
      "inputs": [],
      "name": "owner",
      "outputs": [
        {
          "internalType": "address",
          "name": "",
          "type": "address"
        }
      ],
      "stateMutability": "view",
      "type": "function"
    },
    {
      "inputs": [],
      "name": "renounceOwnership",
      "outputs": [],
      "stateMutability": "nonpayable",
      "type": "function"
    },
    {
      "inputs": [
        {
          "internalType": "address",
          "name": "from",
          "type": "address"
        },
        {
          "internalType": "address",
          "name": "to",
          "type": "address"
        },
        {
          "internalType": "uint256[]",
          "name": "ids",
          "type": "uint256[]"
        },
        {
          "internalType": "uint256[]",
          "name": "values",
          "type": "uint256[]"
        },
        {
          "internalType": "bytes",
          "name": "data",
          "type": "bytes"
        }
      ],
      "name": "safeBatchTransferFrom",
      "outputs": [],
      "stateMutability": "nonpayable",
      "type": "function"
    },
    {
      "inputs": [
        {
          "internalType": "address",
          "name": "from",
          "type": "address"
        },
        {
          "internalType": "address",
          "name": "to",
          "type": "address"
        },
        {
          "internalType": "uint256",
          "name": "id",
          "type": "uint256"
        },
        {
          "internalType": "uint256",
          "name": "value",
          "type": "uint256"
        },
        {
          "internalType": "bytes",
          "name": "data",
          "type": "bytes"
        }
      ],
      "name": "safeTransferFrom",
      "outputs": [],
      "stateMutability": "nonpayable",
      "type": "function"
    },
    {
      "inputs": [
        {
          "internalType": "address",
          "name": "operator",
          "type": "address"
        },
        {
          "internalType": "bool",
          "name": "approved",
          "type": "bool"
        }
      ],
      "name": "setApprovalForAll",
      "outputs": [],
      "stateMutability": "nonpayable",
      "type": "function"
    },
    {
      "inputs": [
        {
          "internalType": "bytes4",
          "name": "interfaceId",
          "type": "bytes4"
        }
      ],
      "name": "supportsInterface",
      "outputs": [
        {
          "internalType": "bool",
          "name": "",
          "type": "bool"
        }
      ],
      "stateMutability": "view",
      "type": "function"
    },
    {
      "inputs": [
        {
          "internalType": "address",
          "name": "newOwner",
          "type": "address"
        }
      ],
      "name": "transferOwnership",
      "outputs": [],
      "stateMutability": "nonpayable",
      "type": "function"
    },
    {
      "inputs": [
        {
          "internalType": "uint256",
          "name": "",
          "type": "uint256"
        }
      ],
      "name": "uri",
      "outputs": [
        {
          "internalType": "string",
          "name": "",
          "type": "string"
        }
      ],
      "stateMutability": "view",
      "type": "function"
    }
  ],
  "bytecode": "0x608060405260016004553480156200001657600080fd5b50336040518060600160405280602a815260200162003f12602a91396200004381620000d160201b60201c565b50600073ffffffffffffffffffffffffffffffffffffffff168173ffffffffffffffffffffffffffffffffffffffff1603620000b95760006040517f1e4fbdf7000000000000000000000000000000000000000000000000000000008152600401620000b09190620001f1565b60405180910390fd5b620000ca81620000e660201b60201c565b506200056f565b8060029081620000e2919062000488565b5050565b6000600360009054906101000a900473ffffffffffffffffffffffffffffffffffffffff16905081600360006101000a81548173ffffffffffffffffffffffffffffffffffffffff021916908373ffffffffffffffffffffffffffffffffffffffff1602179055508173ffffffffffffffffffffffffffffffffffffffff168173ffffffffffffffffffffffffffffffffffffffff167f8be0079c531659141344cd1fd0a4f28419497f9722a3daafe3b4186f6b6457e060405160405180910390a35050565b600073ffffffffffffffffffffffffffffffffffffffff82169050919050565b6000620001d982620001ac565b9050919050565b620001eb81620001cc565b82525050565b6000602082019050620002086000830184620001e0565b92915050565b600081519050919050565b7f4e487b7100000000000000000000000000000000000000000000000000000000600052604160045260246000fd5b7f4e487b7100000000000000000000000000000000000000000000000000000000600052602260045260246000fd5b600060028204905060018216806200029057607f821691505b602082108103620002a657620002a562000248565b5b50919050565b60008190508160005260206000209050919050565b60006020601f8301049050919050565b600082821b905092915050565b600060088302620003107fffffffffffffffffffffffffffffffffffffffffffffffffffffffffffffffff82620002d1565b6200031c8683620002d1565b95508019841693508086168417925050509392505050565b6000819050919050565b6000819050919050565b600062000369620003636200035d8462000334565b6200033e565b62000334565b9050919050565b6000819050919050565b620003858362000348565b6200039d620003948262000370565b848454620002de565b825550505050565b600090565b620003b4620003a5565b620003c18184846200037a565b505050565b5b81811015620003e957620003dd600082620003aa565b600181019050620003c7565b5050565b601f82111562000438576200040281620002ac565b6200040d84620002c1565b810160208510156200041d578190505b620004356200042c85620002c1565b830182620003c6565b50505b505050565b600082821c905092915050565b60006200045d600019846008026200043d565b1980831691505092915050565b60006200047883836200044a565b9150826002028217905092915050565b62000493826200020e565b67ffffffffffffffff811115620004af57620004ae62000219565b5b620004bb825462000277565b620004c8828285620003ed565b600060209050601f831160018114620005005760008415620004eb578287015190505b620004f785826200046a565b86555062000567565b601f1984166200051086620002ac565b60005b828110156200053a5784890151825560018201915060208501945060208101905062000513565b868310156200055a578489015162000556601f8916826200044a565b8355505b6001600288020188555050505b505050505050565b613993806200057f6000396000f3fe608060405234801561001057600080fd5b50600436106101155760003560e01c8063715018a6116100a2578063bdbeb4c511610071578063bdbeb4c5146102f7578063dfd5da6a14610327578063e985e9c514610345578063f242432a14610375578063f2fde38b1461039157610115565b8063715018a6146102835780638da5cb5b1461028d578063909a708a146102ab578063a22cb465146102db57610115565b80632eb2c2d6116100e95780632eb2c2d6146101c657806340bb4fc1146101e25780634e1273f4146101fe5780634e6d14051461022e5780637021cafe1461026757610115565b8062fdd58e1461011a57806301ffc9a71461014a5780630e89341c1461017a5780631f1516b6146101aa575b600080fd5b610134600480360381019061012f9190612471565b6103ad565b60405161014191906124c0565b60405180910390f35b610164600480360381019061015f9190612533565b610407565b604051610171919061257b565b60405180910390f35b610194600480360381019061018f9190612596565b6104e9565b6040516101a19190612653565b60405180910390f35b6101c460048036038101906101bf9190612675565b61057d565b005b6101e060048036038101906101db91906128b2565b61063d565b005b6101fc60048036038101906101f79190612a22565b6106e5565b005b61021860048036038101906102139190612c13565b61090a565b6040516102259190612d49565b60405180910390f35b61024860048036038101906102439190612596565b610a19565b60405161025e9a99989796959493929190612d6b565b60405180910390f35b610281600480360381019061027c9190612596565b610d9d565b005b61028b610f7a565b005b610295610f8e565b6040516102a29190612e40565b60405180910390f35b6102c560048036038101906102c09190612596565b610fb8565b6040516102d29190612fa2565b60405180910390f35b6102f560048036038101906102f09190612ff0565b61137a565b005b610311600480360381019061030c9190612596565b611390565b60405161031e9190612e40565b60405180910390f35b61032f6113c3565b60405161033c91906124c0565b60405180910390f35b61035f600480360381019061035a9190613030565b6113c9565b60405161036c919061257b565b60405180910390f35b61038f600480360381019061038a9190613070565b61145d565b005b6103ab60048036038101906103a69190613107565b611505565b005b600080600083815260200190815260200160002060008473ffffffffffffffffffffffffffffffffffffffff1673ffffffffffffffffffffffffffffffffffffffff16815260200190815260200160002054905092915050565b60007fd9b67a26000000000000000000000000000000000000000000000000000000007bffffffffffffffffffffffffffffffffffffffffffffffffffffffff1916827bffffffffffffffffffffffffffffffffffffffffffffffffffffffff191614806104d257507f0e89341c000000000000000000000000000000000000000000000000000000007bffffffffffffffffffffffffffffffffffffffffffffffffffffffff1916827bffffffffffffffffffffffffffffffffffffffffffffffffffffffff1916145b806104e257506104e18261158b565b5b9050919050565b6060600280546104f890613163565b80601f016020809104026020016040519081016040528092919081815260200182805461052490613163565b80156105715780601f1061054657610100808354040283529160200191610571565b820191906000526020600020905b81548152906001019060200180831161055457829003601f168201915b50505050509050919050565b6006600083815260200190815260200160002060009054906101000a900473ffffffffffffffffffffffffffffffffffffffff1673ffffffffffffffffffffffffffffffffffffffff163373ffffffffffffffffffffffffffffffffffffffff161461061e576040517f08c379a000000000000000000000000000000000000000000000000000000000815260040161061590613206565b60405180910390fd5b610639338383604051806020016040528060008152506115f5565b5050565b600061064761168e565b90508073ffffffffffffffffffffffffffffffffffffffff168673ffffffffffffffffffffffffffffffffffffffff161415801561068c575061068a86826113c9565b155b156106d05780866040517fe237d9220000000000000000000000000000000000000000000000000000000081526004016106c7929190613226565b60405180910390fd5b6106dd8686868686611696565b505050505050565b600060045490506040518061014001604052808281526020018981526020018881526020018781526020018681526020018581526020016040518060400160405280601081526020017f656d6973206574206e6f6e2070617965000000000000000000000000000000008152508152602001848152602001838152602001428152506005600083815260200190815260200160002060008201518160000155602082015181600101908161079991906133fb565b5060408201518160020190816107af91906133fb565b5060608201518160030190816107c591906133fb565b506080820151816004015560a08201518160050190816107e591906133fb565b5060c08201518160060190816107fb91906133fb565b5060e0820151816007015561010082015181600801908161081c91906133fb565b506101208201518160090155905050336006600083815260200190815260200160002060006101000a81548173ffffffffffffffffffffffffffffffffffffffff021916908373ffffffffffffffffffffffffffffffffffffffff16021790555061089933826002604051806020016040528060008152506115f5565b600460008154809291906108ac906134fc565b91905055503373ffffffffffffffffffffffffffffffffffffffff16817f4e27a303d25b2e40e99bc657bbe98e016a53a2ac1696a9a7d3cd6719cad518fa836040516108f891906124c0565b60405180910390a35050505050505050565b6060815183511461095657815183516040517f5b05999100000000000000000000000000000000000000000000000000000000815260040161094d929190613544565b60405180910390fd5b6000835167ffffffffffffffff811115610973576109726126ba565b5b6040519080825280602002602001820160405280156109a15781602001602082028036833780820191505090505b50905060005b8451811015610a0e576109de6109c6828761178e90919063ffffffff16565b6109d983876117a290919063ffffffff16565b6103ad565b8282815181106109f1576109f061356d565b5b60200260200101818152505080610a07906134fc565b90506109a7565b508091505092915050565b6005602052806000526040600020600091509050806000015490806001018054610a4290613163565b80601f0160208091040260200160405190810160405280929190818152602001828054610a6e90613163565b8015610abb5780601f10610a9057610100808354040283529160200191610abb565b820191906000526020600020905b815481529060010190602001808311610a9e57829003601f168201915b505050505090806002018054610ad090613163565b80601f0160208091040260200160405190810160405280929190818152602001828054610afc90613163565b8015610b495780601f10610b1e57610100808354040283529160200191610b49565b820191906000526020600020905b815481529060010190602001808311610b2c57829003601f168201915b505050505090806003018054610b5e90613163565b80601f0160208091040260200160405190810160405280929190818152602001828054610b8a90613163565b8015610bd75780601f10610bac57610100808354040283529160200191610bd7565b820191906000526020600020905b815481529060010190602001808311610bba57829003601f168201915b505050505090806004015490806005018054610bf290613163565b80601f0160208091040260200160405190810160405280929190818152602001828054610c1e90613163565b8015610c6b5780601f10610c4057610100808354040283529160200191610c6b565b820191906000526020600020905b815481529060010190602001808311610c4e57829003601f168201915b505050505090806006018054610c8090613163565b80601f0160208091040260200160405190810160405280929190818152602001828054610cac90613163565b8015610cf95780601f10610cce57610100808354040283529160200191610cf9565b820191906000526020600020905b815481529060010190602001808311610cdc57829003601f168201915b505050505090806007015490806008018054610d1490613163565b80601f0160208091040260200160405190810160405280929190818152602001828054610d4090613163565b8015610d8d5780601f10610d6257610100808354040283529160200191610d8d565b820191906000526020600020905b815481529060010190602001808311610d7057829003601f168201915b505050505090806009015490508a565b6006600082815260200190815260200160002060009054906101000a900473ffffffffffffffffffffffffffffffffffffffff1673ffffffffffffffffffffffffffffffffffffffff163373ffffffffffffffffffffffffffffffffffffffff1614610e3e576040517f08c379a0000000000000000000000000000000000000000000000000000000008152600401610e359061360e565b60405180910390fd5b60006005600083815260200190815260200160002090506040518060400160405280600481526020017f70617965000000000000000000000000000000000000000000000000000000008152508051906020012081600601604051610ea391906136d1565b604051809103902003610eeb576040517f08c379a0000000000000000000000000000000000000000000000000000000008152600401610ee290613734565b60405180910390fd5b6040518060400160405280600481526020017f7061796500000000000000000000000000000000000000000000000000000000815250816006019081610f3191906133fb565b503373ffffffffffffffffffffffffffffffffffffffff16827fb721ab7d2767e645e582c99d779d54bb3193114ad7d13e7bd7f7f2fd9b1875b460405160405180910390a35050565b610f826117b6565b610f8c600061183d565b565b6000600360009054906101000a900473ffffffffffffffffffffffffffffffffffffffff16905090565b610fc0612376565b600560008381526020019081526020016000206040518061014001604052908160008201548152602001600182018054610ff990613163565b80601f016020809104026020016040519081016040528092919081815260200182805461102590613163565b80156110725780601f1061104757610100808354040283529160200191611072565b820191906000526020600020905b81548152906001019060200180831161105557829003601f168201915b5050505050815260200160028201805461108b90613163565b80601f01602080910402602001604051908101604052809291908181526020018280546110b790613163565b80156111045780601f106110d957610100808354040283529160200191611104565b820191906000526020600020905b8154815290600101906020018083116110e757829003601f168201915b5050505050815260200160038201805461111d90613163565b80601f016020809104026020016040519081016040528092919081815260200182805461114990613163565b80156111965780601f1061116b57610100808354040283529160200191611196565b820191906000526020600020905b81548152906001019060200180831161117957829003601f168201915b50505050508152602001600482015481526020016005820180546111b990613163565b80601f01602080910402602001604051908101604052809291908181526020018280546111e590613163565b80156112325780601f1061120757610100808354040283529160200191611232565b820191906000526020600020905b81548152906001019060200180831161121557829003601f168201915b5050505050815260200160068201805461124b90613163565b80601f016020809104026020016040519081016040528092919081815260200182805461127790613163565b80156112c45780601f10611299576101008083540402835291602001916112c4565b820191906000526020600020905b8154815290600101906020018083116112a757829003601f168201915b50505050508152602001600782015481526020016008820180546112e790613163565b80601f016020809104026020016040519081016040528092919081815260200182805461131390613163565b80156113605780601f1061133557610100808354040283529160200191611360565b820191906000526020600020905b81548152906001019060200180831161134357829003601f168201915b505050505081526020016009820154815250509050919050565b61138c61138561168e565b8383611903565b5050565b60066020528060005260406000206000915054906101000a900473ffffffffffffffffffffffffffffffffffffffff1681565b60045481565b6000600160008473ffffffffffffffffffffffffffffffffffffffff1673ffffffffffffffffffffffffffffffffffffffff16815260200190815260200160002060008373ffffffffffffffffffffffffffffffffffffffff1673ffffffffffffffffffffffffffffffffffffffff16815260200190815260200160002060009054906101000a900460ff16905092915050565b600061146761168e565b90508073ffffffffffffffffffffffffffffffffffffffff168673ffffffffffffffffffffffffffffffffffffffff16141580156114ac57506114aa86826113c9565b155b156114f05780866040517fe237d9220000000000000000000000000000000000000000000000000000000081526004016114e7929190613226565b60405180910390fd5b6114fd8686868686611a73565b505050505050565b61150d6117b6565b600073ffffffffffffffffffffffffffffffffffffffff168173ffffffffffffffffffffffffffffffffffffffff160361157f5760006040517f1e4fbdf70000000000000000000000000000000000000000000000000000000081526004016115769190612e40565b60405180910390fd5b6115888161183d565b50565b60007f01ffc9a7000000000000000000000000000000000000000000000000000000007bffffffffffffffffffffffffffffffffffffffffffffffffffffffff1916827bffffffffffffffffffffffffffffffffffffffffffffffffffffffff1916149050919050565b600073ffffffffffffffffffffffffffffffffffffffff168473ffffffffffffffffffffffffffffffffffffffff16036116675760006040517f57f447ce00000000000000000000000000000000000000000000000000000000815260040161165e9190612e40565b60405180910390fd5b6000806116748585611b7e565b91509150611686600087848487611bae565b505050505050565b600033905090565b600073ffffffffffffffffffffffffffffffffffffffff168473ffffffffffffffffffffffffffffffffffffffff16036117085760006040517f57f447ce0000000000000000000000000000000000000000000000000000000081526004016116ff9190612e40565b60405180910390fd5b600073ffffffffffffffffffffffffffffffffffffffff168573ffffffffffffffffffffffffffffffffffffffff160361177a5760006040517f01a835140000000000000000000000000000000000000000000000000000000081526004016117719190612e40565b60405180910390fd5b6117878585858585611bae565b5050505050565b600060208202602084010151905092915050565b600060208202602084010151905092915050565b6117be61168e565b73ffffffffffffffffffffffffffffffffffffffff166117dc610f8e565b73ffffffffffffffffffffffffffffffffffffffff161461183b576117ff61168e565b6040517f118cdaa70000000000000000000000000000000000000000000000000000000081526004016118329190612e40565b60405180910390fd5b565b6000600360009054906101000a900473ffffffffffffffffffffffffffffffffffffffff16905081600360006101000a81548173ffffffffffffffffffffffffffffffffffffffff021916908373ffffffffffffffffffffffffffffffffffffffff1602179055508173ffffffffffffffffffffffffffffffffffffffff168173ffffffffffffffffffffffffffffffffffffffff167f8be0079c531659141344cd1fd0a4f28419497f9722a3daafe3b4186f6b6457e060405160405180910390a35050565b600073ffffffffffffffffffffffffffffffffffffffff168273ffffffffffffffffffffffffffffffffffffffff16036119755760006040517fced3e10000000000000000000000000000000000000000000000000000000000815260040161196c9190612e40565b60405180910390fd5b80600160008573ffffffffffffffffffffffffffffffffffffffff1673ffffffffffffffffffffffffffffffffffffffff16815260200190815260200160002060008473ffffffffffffffffffffffffffffffffffffffff1673ffffffffffffffffffffffffffffffffffffffff16815260200190815260200160002060006101000a81548160ff0219169083151502179055508173ffffffffffffffffffffffffffffffffffffffff168373ffffffffffffffffffffffffffffffffffffffff167f17307eab39ab6107e8899845ad3d59bd9653f200f220920489ca2b5937696c3183604051611a66919061257b565b60405180910390a3505050565b600073ffffffffffffffffffffffffffffffffffffffff168473ffffffffffffffffffffffffffffffffffffffff1603611ae55760006040517f57f447ce000000000000000000000000000000000000000000000000000000008152600401611adc9190612e40565b60405180910390fd5b600073ffffffffffffffffffffffffffffffffffffffff168573ffffffffffffffffffffffffffffffffffffffff1603611b575760006040517f01a83514000000000000000000000000000000000000000000000000000000008152600401611b4e9190612e40565b60405180910390fd5b600080611b648585611b7e565b91509150611b758787848487611bae565b50505050505050565b60608060405191506001825283602083015260408201905060018152826020820152604081016040529250929050565b611bba85858585611c60565b600073ffffffffffffffffffffffffffffffffffffffff168473ffffffffffffffffffffffffffffffffffffffff1614611c59576000611bf861168e565b90506001845103611c48576000611c196000866117a290919063ffffffff16565b90506000611c316000866117a290919063ffffffff16565b9050611c4183898985858961200e565b5050611c57565b611c568187878787876121c2565b5b505b5050505050565b8051825114611caa57815181516040517f5b059991000000000000000000000000000000000000000000000000000000008152600401611ca1929190613544565b60405180910390fd5b6000611cb461168e565b905060005b8351811015611ec9576000611cd782866117a290919063ffffffff16565b90506000611cee83866117a290919063ffffffff16565b9050600073ffffffffffffffffffffffffffffffffffffffff168873ffffffffffffffffffffffffffffffffffffffff1614611e1b57600080600084815260200190815260200160002060008a73ffffffffffffffffffffffffffffffffffffffff1673ffffffffffffffffffffffffffffffffffffffff16815260200190815260200160002054905081811015611dc357888183856040517f03dee4c5000000000000000000000000000000000000000000000000000000008152600401611dba9493929190613754565b60405180910390fd5b81810360008085815260200190815260200160002060008b73ffffffffffffffffffffffffffffffffffffffff1673ffffffffffffffffffffffffffffffffffffffff16815260200190815260200160002081905550505b600073ffffffffffffffffffffffffffffffffffffffff168773ffffffffffffffffffffffffffffffffffffffff1614611eb6578060008084815260200190815260200160002060008973ffffffffffffffffffffffffffffffffffffffff1673ffffffffffffffffffffffffffffffffffffffff1681526020019081526020016000206000828254611eae9190613799565b925050819055505b505080611ec2906134fc565b9050611cb9565b506001835103611f88576000611ee96000856117a290919063ffffffff16565b90506000611f016000856117a290919063ffffffff16565b90508573ffffffffffffffffffffffffffffffffffffffff168773ffffffffffffffffffffffffffffffffffffffff168473ffffffffffffffffffffffffffffffffffffffff167fc3d58168c5ae7397731d063d5bbf3d657854427343f4c083240f7aacaa2d0f628585604051611f79929190613544565b60405180910390a45050612007565b8373ffffffffffffffffffffffffffffffffffffffff168573ffffffffffffffffffffffffffffffffffffffff168273ffffffffffffffffffffffffffffffffffffffff167f4a39dc06d4c0dbc64b70af90fd698a233a518aa5d07e595d983b8c0526c8f7fb8686604051611ffe9291906137cd565b60405180910390a45b5050505050565b60008473ffffffffffffffffffffffffffffffffffffffff163b11156121ba578373ffffffffffffffffffffffffffffffffffffffff1663f23a6e6187878686866040518663ffffffff1660e01b815260040161206f959493929190613859565b6020604051808303816000875af19250505080156120ab57506040513d601f19601f820116820180604052508101906120a891906138c8565b60015b61212f573d80600081146120db576040519150601f19603f3d011682016040523d82523d6000602084013e6120e0565b606091505b50600081510361212757846040517f57f447ce00000000000000000000000000000000000000000000000000000000815260040161211e9190612e40565b60405180910390fd5b805181602001fd5b63f23a6e6160e01b7bffffffffffffffffffffffffffffffffffffffffffffffffffffffff1916817bffffffffffffffffffffffffffffffffffffffffffffffffffffffff1916146121b857846040517f57f447ce0000000000000000000000000000000000000000000000000000000081526004016121af9190612e40565b60405180910390fd5b505b505050505050565b60008473ffffffffffffffffffffffffffffffffffffffff163b111561236e578373ffffffffffffffffffffffffffffffffffffffff1663bc197c8187878686866040518663ffffffff1660e01b81526004016122239594939291906138f5565b6020604051808303816000875af192505050801561225f57506040513d601f19601f8201168201806040525081019061225c91906138c8565b60015b6122e3573d806000811461228f576040519150601f19603f3d011682016040523d82523d6000602084013e612294565b606091505b5060008151036122db57846040517f57f447ce0000000000000000000000000000000000000000000000000000000081526004016122d29190612e40565b60405180910390fd5b805181602001fd5b63bc197c8160e01b7bffffffffffffffffffffffffffffffffffffffffffffffffffffffff1916817bffffffffffffffffffffffffffffffffffffffffffffffffffffffff19161461236c57846040517f57f447ce0000000000000000000000000000000000000000000000000000000081526004016123639190612e40565b60405180910390fd5b505b505050505050565b604051806101400160405280600081526020016060815260200160608152602001606081526020016000815260200160608152602001606081526020016000815260200160608152602001600081525090565b6000604051905090565b600080fd5b600080fd5b600073ffffffffffffffffffffffffffffffffffffffff82169050919050565b6000612408826123dd565b9050919050565b612418816123fd565b811461242357600080fd5b50565b6000813590506124358161240f565b92915050565b6000819050919050565b61244e8161243b565b811461245957600080fd5b50565b60008135905061246b81612445565b92915050565b60008060408385031215612488576124876123d3565b5b600061249685828601612426565b92505060206124a78582860161245c565b9150509250929050565b6124ba8161243b565b82525050565b60006020820190506124d560008301846124b1565b92915050565b60007fffffffff0000000000000000000000000000000000000000000000000000000082169050919050565b612510816124db565b811461251b57600080fd5b50565b60008135905061252d81612507565b92915050565b600060208284031215612549576125486123d3565b5b60006125578482850161251e565b91505092915050565b60008115159050919050565b61257581612560565b82525050565b6000602082019050612590600083018461256c565b92915050565b6000602082840312156125ac576125ab6123d3565b5b60006125ba8482850161245c565b91505092915050565b600081519050919050565b600082825260208201905092915050565b60005b838110156125fd5780820151818401526020810190506125e2565b60008484015250505050565b6000601f19601f8301169050919050565b6000612625826125c3565b61262f81856125ce565b935061263f8185602086016125df565b61264881612609565b840191505092915050565b6000602082019050818103600083015261266d818461261a565b905092915050565b6000806040838503121561268c5761268b6123d3565b5b600061269a8582860161245c565b92505060206126ab8582860161245c565b9150509250929050565b600080fd5b7f4e487b7100000000000000000000000000000000000000000000000000000000600052604160045260246000fd5b6126f282612609565b810181811067ffffffffffffffff82111715612711576127106126ba565b5b80604052505050565b60006127246123c9565b905061273082826126e9565b919050565b600067ffffffffffffffff8211156127505761274f6126ba565b5b602082029050602081019050919050565b600080fd5b600061277961277484612735565b61271a565b9050808382526020820190506020840283018581111561279c5761279b612761565b5b835b818110156127c557806127b1888261245c565b84526020840193505060208101905061279e565b5050509392505050565b600082601f8301126127e4576127e36126b5565b5b81356127f4848260208601612766565b91505092915050565b600080fd5b600067ffffffffffffffff82111561281d5761281c6126ba565b5b61282682612609565b9050602081019050919050565b82818337600083830152505050565b600061285561285084612802565b61271a565b905082815260208101848484011115612871576128706127fd565b5b61287c848285612833565b509392505050565b600082601f830112612899576128986126b5565b5b81356128a9848260208601612842565b91505092915050565b600080600080600060a086880312156128ce576128cd6123d3565b5b60006128dc88828901612426565b95505060206128ed88828901612426565b945050604086013567ffffffffffffffff81111561290e5761290d6123d8565b5b61291a888289016127cf565b935050606086013567ffffffffffffffff81111561293b5761293a6123d8565b5b612947888289016127cf565b925050608086013567ffffffffffffffff811115612968576129676123d8565b5b61297488828901612884565b9150509295509295909350565b600067ffffffffffffffff82111561299c5761299b6126ba565b5b6129a582612609565b9050602081019050919050565b60006129c56129c084612981565b61271a565b9050828152602081018484840111156129e1576129e06127fd565b5b6129ec848285612833565b509392505050565b600082601f830112612a0957612a086126b5565b5b8135612a198482602086016129b2565b91505092915050565b600080600080600080600060e0888a031215612a4157612a406123d3565b5b600088013567ffffffffffffffff811115612a5f57612a5e6123d8565b5b612a6b8a828b016129f4565b975050602088013567ffffffffffffffff811115612a8c57612a8b6123d8565b5b612a988a828b016129f4565b965050604088013567ffffffffffffffff811115612ab957612ab86123d8565b5b612ac58a828b016129f4565b9550506060612ad68a828b0161245c565b945050608088013567ffffffffffffffff811115612af757612af66123d8565b5b612b038a828b016129f4565b93505060a0612b148a828b0161245c565b92505060c088013567ffffffffffffffff811115612b3557612b346123d8565b5b612b418a828b016129f4565b91505092959891949750929550565b600067ffffffffffffffff821115612b6b57612b6a6126ba565b5b602082029050602081019050919050565b6000612b8f612b8a84612b50565b61271a565b90508083825260208201905060208402830185811115612bb257612bb1612761565b5b835b81811015612bdb5780612bc78882612426565b845260208401935050602081019050612bb4565b5050509392505050565b600082601f830112612bfa57612bf96126b5565b5b8135612c0a848260208601612b7c565b91505092915050565b60008060408385031215612c2a57612c296123d3565b5b600083013567ffffffffffffffff811115612c4857612c476123d8565b5b612c5485828601612be5565b925050602083013567ffffffffffffffff811115612c7557612c746123d8565b5b612c81858286016127cf565b9150509250929050565b600081519050919050565b600082825260208201905092915050565b6000819050602082019050919050565b612cc08161243b565b82525050565b6000612cd28383612cb7565b60208301905092915050565b6000602082019050919050565b6000612cf682612c8b565b612d008185612c96565b9350612d0b83612ca7565b8060005b83811015612d3c578151612d238882612cc6565b9750612d2e83612cde565b925050600181019050612d0f565b5085935050505092915050565b60006020820190508181036000830152612d638184612ceb565b905092915050565b600061014082019050612d81600083018d6124b1565b8181036020830152612d93818c61261a565b90508181036040830152612da7818b61261a565b90508181036060830152612dbb818a61261a565b9050612dca60808301896124b1565b81810360a0830152612ddc818861261a565b905081810360c0830152612df0818761261a565b9050612dff60e08301866124b1565b818103610100830152612e12818561261a565b9050612e226101208301846124b1565b9b9a5050505050505050505050565b612e3a816123fd565b82525050565b6000602082019050612e556000830184612e31565b92915050565b600082825260208201905092915050565b6000612e77826125c3565b612e818185612e5b565b9350612e918185602086016125df565b612e9a81612609565b840191505092915050565b600061014083016000830151612ebe6000860182612cb7565b5060208301518482036020860152612ed68282612e6c565b91505060408301518482036040860152612ef08282612e6c565b91505060608301518482036060860152612f0a8282612e6c565b9150506080830151612f1f6080860182612cb7565b5060a083015184820360a0860152612f378282612e6c565b91505060c083015184820360c0860152612f518282612e6c565b91505060e0830151612f6660e0860182612cb7565b50610100830151848203610100860152612f808282612e6c565b915050610120830151612f97610120860182612cb7565b508091505092915050565b60006020820190508181036000830152612fbc8184612ea5565b905092915050565b612fcd81612560565b8114612fd857600080fd5b50565b600081359050612fea81612fc4565b92915050565b60008060408385031215613007576130066123d3565b5b600061301585828601612426565b925050602061302685828601612fdb565b9150509250929050565b60008060408385031215613047576130466123d3565b5b600061305585828601612426565b925050602061306685828601612426565b9150509250929050565b600080600080600060a0868803121561308c5761308b6123d3565b5b600061309a88828901612426565b95505060206130ab88828901612426565b94505060406130bc8882890161245c565b93505060606130cd8882890161245c565b925050608086013567ffffffffffffffff8111156130ee576130ed6123d8565b5b6130fa88828901612884565b9150509295509295909350565b60006020828403121561311d5761311c6123d3565b5b600061312b84828501612426565b91505092915050565b7f4e487b7100000000000000000000000000000000000000000000000000000000600052602260045260246000fd5b6000600282049050600182168061317b57607f821691505b60208210810361318e5761318d613134565b5b50919050565b7f5365756c206c65206372656174657572206465206c612066616374757265207060008201527f657574206d696e74657220706c757320646520636f7069657300000000000000602082015250565b60006131f06039836125ce565b91506131fb82613194565b604082019050919050565b6000602082019050818103600083015261321f816131e3565b9050919050565b600060408201905061323b6000830185612e31565b6132486020830184612e31565b9392505050565b60008190508160005260206000209050919050565b60006020601f8301049050919050565b600082821b905092915050565b6000600883026132b17fffffffffffffffffffffffffffffffffffffffffffffffffffffffffffffffff82613274565b6132bb8683613274565b95508019841693508086168417925050509392505050565b6000819050919050565b60006132f86132f36132ee8461243b565b6132d3565b61243b565b9050919050565b6000819050919050565b613312836132dd565b61332661331e826132ff565b848454613281565b825550505050565b600090565b61333b61332e565b613346818484613309565b505050565b5b8181101561336a5761335f600082613333565b60018101905061334c565b5050565b601f8211156133af576133808161324f565b61338984613264565b81016020851015613398578190505b6133ac6133a485613264565b83018261334b565b50505b505050565b600082821c905092915050565b60006133d2600019846008026133b4565b1980831691505092915050565b60006133eb83836133c1565b9150826002028217905092915050565b613404826125c3565b67ffffffffffffffff81111561341d5761341c6126ba565b5b6134278254613163565b61343282828561336e565b600060209050601f8311600181146134655760008415613453578287015190505b61345d85826133df565b8655506134c5565b601f1984166134738661324f565b60005b8281101561349b57848901518255600182019150602085019450602081019050613476565b868310156134b857848901516134b4601f8916826133c1565b8355505b6001600288020188555050505b505050505050565b7f4e487b7100000000000000000000000000000000000000000000000000000000600052601160045260246000fd5b60006135078261243b565b91507fffffffffffffffffffffffffffffffffffffffffffffffffffffffffffffffff8203613539576135386134cd565b5b600182019050919050565b600060408201905061355960008301856124b1565b61356660208301846124b1565b9392505050565b7f4e487b7100000000000000000000000000000000000000000000000000000000600052603260045260246000fd5b7f5365756c206c65206372656174657572206465206c612066616374757265207060008201527f657574206c61206d61727175657220636f6d6d65207061796565000000000000602082015250565b60006135f8603a836125ce565b91506136038261359c565b604082019050919050565b60006020820190508181036000830152613627816135eb565b9050919050565b600081905092915050565b60008190508160005260206000209050919050565b6000815461365b81613163565b613665818661362e565b945060018216600081146136805760018114613695576136c8565b60ff19831686528115158202860193506136c8565b61369e85613639565b60005b838110156136c0578154818901526001820191506020810190506136a1565b838801955050505b50505092915050565b60006136dd828461364e565b915081905092915050565b7f4c612066616374757265206573742064656a612070617965652e000000000000600082015250565b600061371e601a836125ce565b9150613729826136e8565b602082019050919050565b6000602082019050818103600083015261374d81613711565b9050919050565b60006080820190506137696000830187612e31565b61377660208301866124b1565b61378360408301856124b1565b61379060608301846124b1565b95945050505050565b60006137a48261243b565b91506137af8361243b565b92508282019050808211156137c7576137c66134cd565b5b92915050565b600060408201905081810360008301526137e78185612ceb565b905081810360208301526137fb8184612ceb565b90509392505050565b600081519050919050565b600082825260208201905092915050565b600061382b82613804565b613835818561380f565b93506138458185602086016125df565b61384e81612609565b840191505092915050565b600060a08201905061386e6000830188612e31565b61387b6020830187612e31565b61388860408301866124b1565b61389560608301856124b1565b81810360808301526138a78184613820565b90509695505050505050565b6000815190506138c281612507565b92915050565b6000602082840312156138de576138dd6123d3565b5b60006138ec848285016138b3565b91505092915050565b600060a08201905061390a6000830188612e31565b6139176020830187612e31565b81810360408301526139298186612ceb565b9050818103606083015261393d8185612ceb565b905081810360808301526139518184613820565b9050969550505050505056fea2646970667358221220179c57512d3f0bf74a464b75334c8b199225495c2404af47b310e368757cf71b64736f6c6343000814003368747470733a2f2f6170692e6578616d706c652e636f6d2f6d657461646174612f7b69647d2e6a736f6e",
  "linkReferences": {},
  "deployedLinkReferences": {}
}